:100000000C945B020C948C020C948C020C948C0269
:100010000C948C020C948C020C948C020C948C0228
:100020000C948C020C948C020C948C020C948C0218
:100030000C948C020C948C020C948C020C948C0208
:100040000C948C020C948C020C948C020C948C02F8
:100050000C948C020C948C020C948C020C94E30390
:100060000C948C020C94400A0C9468090C948C0239
:100070000C948C020C948C020C948C020C948C02C8
:100080000C948C020C948C020C948C020C948C02B8
:100090000C940D0A0C9429090C948C020C948C027B
:1000A0000C948C020C948C020C948C020C948C0298
:1000B0000C948C020C948C020C948C020C948C0288
:1000C0000C948C020C948C020C948C020C94DA0923
:1000D0000C94EA080C948C020C94A7090C94AB08BD
:1000E0000C948C02CD02D002C302C7020703D402D3
:1000F000D802DE02E202E602EC02F002F40207039A
:10010000FA02FE0202030C948E020C94F4020C9488
:10011000D4020C9476040C9402030C94DE020C942A
:1001200081040C94E6020C94280E0C94C3020C94E7
:10013000CD020C94FE020C9407030C94D0020C9494
:10014000C7020C94BD040C94A1040C94EC020C9412
:10015000D8020C9434040C94F0020C94FA020C941F
:10016000E20250415F4D41580050415F48494748C5
:100170000050415F4C4F570050415F4D494E003198
:1001800036206269747300382062697473004469B0
:100190007361626C6564006E524632344C30312BB0
:1001A000006E524632344C3031003235304B4250C2
:1001B0005300324D42505300314D42505300000025
:1001C0002100240027002A002D0030003300010107
:1001D0000000040107010A01000022002500280098
:1001E0002B002E003100340002010000050108013F
:1001F0000B01000020002300260029002C002F0006
:100200003200000100000301060109010505050592
:10021000070508080808020202020A0A080804047E
:1002200004040101010101010101030303030303AC
:100230000303040707070C0C0C0C0C0C0C0C02023B
:10024000020206060606060606060B0B0B0B0B0B38
:100250000B0B0102102020080810204010204080C5
:10026000020102010804020101020408102040807A
:100270008040201008040201800402018040201008
:100280000804020108040201010204081020408051
:1002900001020408102040800000090A02080B0C2B
:1002A0000D0706030401000000000000000000002C
:1002B000000000000000000000000000000000003E
:1002C0000000000011100F000000000000000000FE
:1002D0000000000000000000000000000000535477
:1002E000415455530909203D20307825303278207B
:1002F00052585F44523D25782054585F44533D2561
:1003000078204D41585F52543D25782052585F5017
:100310005F4E4F3D25782054585F46554C4C3D2547
:10032000780D0A00504120506F77657209203D20FA
:1003300025530D0A0078017101690162014352439E
:10034000204C656E67746809203D2025530D0A0016
:100350008E0187017F014D6F64656C0909203D2086
:1003600025530D0A00A10197014461746120526177
:10037000746509203D2025530D0A00B801B201AA79
:100380000144594E50442F4645415455524500436F
:100390004F4E464947090052465F53455455500059
:1003A00052465F43480900454E5F5258414444520B
:1003B00000454E5F4141090052585F50575F503031
:1003C0002D360054585F41444452090052585F4151
:1003D0004444525F50322D350052585F41444452DC
:1003E0005F50302D3100524F4C453A20005246327A
:1003F000342F6578616D706C65732F70696E6770EE
:100400006169725F64796E2F0053656E7420726546
:1004100073706F6E73652E002076616C75653D009C
:10042000476F7420726573706F6E73652073697A9D
:10043000653D002076616C75653D00476F742072E4
:100440006573706F6E73652073697A653D004661F0
:10045000696C65642C20726573706F6E73652074AF
:10046000696D6564206F75742E004E6F772073651B
:100470006E64696E67206C656E67746820000D0A93
:1004800000253032780020307800255309203D00C7
:100490000D0A002030782530327800255309203DA0
:1004A000000001020304051112131415160A0B0CA7
:1004B0000D0E0F00280E11241FBECFEFD1E2DEBFBC
:1004C000CDBF00E00CBF25E0A4E5B2E001C01D9265
:1004D000A634B207E1F712E0A0E0B2E0E0E2F4E215
:1004E00000E00BBF02C007900D92A435B107D9F709
:1004F00012E0CBE5D2E000E006C021970109802F91
:10050000FE010E940612CA35D10780E00807A9F74C
:100510000E94730A0C94120F0C940000CF92DF9289
:10052000EF92FF920F931F93CF93DF936C01EB0138
:100530007B01E40EF51E00E010E0CE15DF0561F052
:100540006991D601ED91FC910190F081E02DC601F9
:100550001995080F191FF1CFC801DF91CF911F9195
:100560000F91FF90EF90DF90CF90089590E0FC0105
:100570003197E131F10508F04AC08827EE58FF4F66
:100580008F4F0C940612809180008F7703C080916A
:1005900080008F7D80938000089584B58F7702C09E
:1005A00084B58F7D84BD08958091B0008F7703C09E
:1005B0008091B0008F7D8093B0000895809190006D
:1005C0008F7707C0809190008F7D03C0809190004D
:1005D000877F8093900008958091A0008F7707C057
:1005E0008091A0008F7D03C08091A000877F8093C1
:1005F000A0000895809120018F7707C0809120018D
:100600008F7D03C080912001877F80932001089512
:10061000CF93DF9390E0FC01EE5AFD4F2491FC0153
:10062000E45FFD4F8491882361F190E0880F991F6A
:10063000FC01E254FE4FC591D491FC01E852FE4FFB
:10064000A591B491611109C09FB7F8948881209554
:1006500082238883EC912E230BC0623061F49FB714
:10066000F8943881822F809583238883EC912E2BF8
:100670002C939FBF06C08FB7F894E8812E2B288358
:100680008FBFDF91CF9108953FB7F89480915502C5
:1006900090915602A0915702B091580226B5A89B9E
:1006A00005C02F3F19F00196A11DB11D3FBFBA2F04
:1006B000A92F982F8827820F911DA11DB11DBC0164
:1006C000CD0142E0660F771F881F991F4A95D1F729
:1006D0000895FB01E05CFF4F208131812F5F3F4F88
:1006E0002F733327DB01AE5BBF4F4D915C91241715
:1006F000350741F040815181DB01A40FB51F8C9378
:100700003183208308951F93CF93DF93282F30E008
:10071000F901E856FD4F8491F901EE5AFD4FD4914D
:10072000F901E45FFD4FC491CC23C9F0162F81116C
:100730000E94B602EC2FF0E0EE0FFF1FE852FE4FD2
:10074000A591B4918FB7F894111105C09C91ED2F2C
:10075000E095E92302C0EC91ED2BEC938FBFDF9184
:10076000CF911F910895019739F0880F991F880F35
:10077000991F02970197F1F70895CF92DF92EF92B8
:10078000FF92CF93DF936B017C010E944403EB0146
:10079000C114D104E104F10479F00E9444036C1BFC
:1007A0007D0B683E7340A0F381E0C81AD108E108D0
:1007B000F108C851DC4FECCFDF91CF91FF90EF9063
:1007C000DF90CF9008951F920F920FB60F921124D1
:1007D0002F933F938F939F93AF93BF938091590231
:1007E00090915A02A0915B02B0915C023091540248
:1007F00023E0230F2D3720F40196A11DB11D05C064
:1008000026E8230F0296A11DB11D20935402809368
:10081000590290935A02A0935B02B0935C028091BC
:10082000550290915602A0915702B091580201963C
:10083000A11DB11D8093550290935602A0935702BB
:10084000B0935802BF91AF919F918F913F912F919B
:100850000F900FBE0F901F9018958EBD0DB407FE20
:10086000FDCF8EB5089508950F931F93CF93DF9317
:10087000FC01A685B7858D01005C1F4FE8018881CA
:10088000998101968F739927AD014E5B5F4FEA0105
:100890002881398182179307D1F3E80128813981B2
:1008A000A20FB31F6C93A685B785A05CBF4F1196AE
:1008B0009C938E93A689B7892C9181E090E0078C58
:1008C00002C0880F991F0A94E2F7822B8C9381E073
:1008D00081A30488F589E02D80818064808381E094
:1008E00090E0DF91CF911F910F910895FC0181A1BC
:1008F000882329F0A489B5898C9186FFFBCF11A2AA
:100900000895FC01A485B585FD01E05CFF4F2081C1
:1009100031813296808191812817390779F0808161
:100920009181A80FB91F8C91208131812F5F3F4F9A
:100930002F7333273183208390E008958FEF9FEF4B
:100940000895DC011C96ED91FC911D97DF01A05CE0
:10095000BF4F2D913C91119712968D919C911197BB
:100960002817390739F08D919C91E80FF91F808184
:1009700090E008958FEF9FEF0895FC012485358561
:10098000F901E05CFF4F80819181329620813181B5
:10099000821B930B8F739927089580E892E00E9441
:1009A000BD0486E994E00E94BD048CEE93E00E94B1
:1009B000BD0482E493E00C94BD04009769F0FC014F
:1009C00001900020E9F73197AF01481B590BBC019A
:1009D00080E892E00C948E0280E090E00895CF933E
:1009E000DF939CB59F7D9CBD9CB5937F9CBD9CB5C2
:1009F0009C7F9CBD9DB591609DBDC2EAD2E0682FF1
:100A00008A810E9483038C899D89DF91CF910C9408
:100A1000B3032091A2023091A3024091A40250910D
:100A2000A5022417350721F0682F822F0C94830329
:100A3000089580E00C94EF0481E00C94EF04EF92B1
:100A4000FF920F931F93CF93DF9300D0CDB7DEB704
:100A5000162F4A837B8389830E94190589818F71B0
:100A600080620E942D04082FE12E7B81F72E4A819F
:100A7000140F1E1531F0F70181917F010E942D04A2
:100A8000F8CF0E941C05802F0F900F900F90DF91E0
:100A9000CF911F910F91FF90EF900895CF93DF9327
:100AA0001F92CDB7DEB789830E94190589818F71A6
:100AB0000E942D048FEF0E942D0489830E941C0543
:100AC00089810F90DF91CF9108951F93CF93DF938A
:100AD0001F921F92CDB7DEB76A8389830E941905E2
:100AE00089818F7180620E942D04182F6A81862F60
:100AF0000E942D040E941C05812F0F900F90DF9102
:100B0000CF911F9108950F931F93CF93DF93CDB78C
:100B1000DEB728970FB6F894DEBF0FBECDBF29838E
:100B20003A834B835C836D837E838F839887EEEA61
:100B3000F4E0849102EA12E0F8014685BE016F5F9D
:100B40007F4F0E941F05E8EAF4E08491F801678175
:100B50000E94650582E00E944E05E2EAF4E0E4911D
:100B600061E070E001C0660FEA95EAF7682B82E069
:100B70000E94650528960FB6F894DEBF0FBECDBF64
:100B8000DF91CF911F910F910895FF920F931F93C3
:100B9000CF93DF93C091A902D82FC81708F4DC2F98
:100BA0008091AA02811102C0CD1B01C0C0E00E9449
:100BB000190581E60E942D04F82E0FE512E0D00FF2
:100BC000D01739F08FEF0E942D04F80181938F0127
:100BD000F7CFCC2329F08FEF0E942D04C150F9CF1D
:100BE0000E941C058F2DDF91CF911F910F91FF90D7
:100BF0000895CF93DF931F92CDB7DEB789830E940C
:100C0000190589810E942D0489830E941C05898110
:100C10000F90DF91CF910895CF93DF931F92CDB7BF
:100C2000DEB70E94190580E60E942D048FEF0E9416
:100C30002D0489830E941C058981813250F082EE47
:100C40000E94F90562E070E080E090E00E94BD0340
:100C500080E00F90DF91CF91089581EE0C94F9051B
:100C6000EF92FF920F931F93CF93DF931F92CDB715
:100C7000DEB7E42E9F938F938BE994E09F938F933D
:100C800069830E94150F6981E60E0F900F900F90F7
:100C90000F9003E914E06E1591F0FF24F394F60E23
:100CA000862F0E944E051F928F931F930F930E94D1
:100CB000150F0F900F900F900F906F2DECCF80E9D4
:100CC00094E09F938F930E94150F0F900F900F90B9
:100CD000DF91CF911F910F91FF90EF9008952F9288
:100CE0003F924F925F926F927F928F929F92AF92BC
:100CF000BF92CF92DF92EF92FF920F931F93CF9309
:100D0000DF931F92CDB7DEB7562E342E6DB67EB66A
:100D10009F938F938AE894E09F938F930E94150F7F
:100D2000350C0F900F900F900F9086E8C82E84E03E
:100D3000D82E91E8A92E94E0B92E531409F44EC090
:100D40008DB69EB69091B002092F10E02DB73EB738
:100D5000201B310B0FB6F8943EBF0FBE2DBFEDB771
:100D6000FEB731967F0122242394250C99830E949B
:100D70001905852D8F710E942D04270199819E0DE3
:100D8000941549F08FEF99830E942D04F20181930D
:100D90002F019981F5CF0E941C05DF92CF920E940E
:100DA000150F0E0D1F1D0F900F90015011090E15FC
:100DB0001F0568F0F80180811F928F93BF92AF9258
:100DC0000E94150F0F900F900F900F90EECF0FB65F
:100DD000F8949EBE0FBE8DBE522CAFCF8EE794E02E
:100DE0009F938F930E94150F0F900F900FB6F8945A
:100DF0007EBE0FBE6DBE0F90DF91CF911F910F9100
:100E0000FF90EF90DF90CF90BF90AF909F908F902A
:100E10007F906F905F904F903F902F90089580E06B
:100E20000E9409058091B2029091B3020E94B3031F
:100E30008DE10E944E0581FF08C08091B202909121
:100E4000B3020E94B3030E942D0680E00E944E056B
:100E5000682F6E7F80E00E94650582E00E944E054B
:100E6000E1EAF4E0E49161E070E001C0660FEA9528
:100E7000EAF7682B82E00C94650580E00E944E053D
:100E800081FD0BC0682F626080E00E94650565E00F
:100E900070E080E090E00C94BD030895DF92EF9243
:100EA000FF920F931F93CF93DF931F92CDB7DEB7BF
:100EB000F82E2091A902E62E261708F4E22E809142
:100EC000AA02811103C0D22EDE1801C0D12C998351
:100ED0000E94190580EA0E942D040F2D9981192F77
:100EE000FE0CF01631F0F80181918F010E942D0463
:100EF000F8CFDD2029F080E00E942D04DA94F9CFAC
:100F00000E941C0581E00E9409058FEF0E94F905EF
:100F10008073D9F380E00E94090560E787E00E94B2
:100F2000650584FF04C00E942D0680E001C081E0B9
:100F30000F90DF91CF911F910F91FF90EF90DF9075
:100F400008950F931F93CF93DF93CDB7DEB7289704
:100F50000FB6F894DEBF0FBECDBF29833A834B8313
:100F60005C836D837E838F83988702EA12E0F801A9
:100F70004685BE016F5F7F4F8AE00E941F05F80122
:100F80004685BE016F5F7F4F80E10E941F05F8011B
:100F9000678181E10E94650528960FB6F894DEBF4F
:100FA0000FBECDBFDF91CF911F910F9108950E9489
:100FB0003D0780E00E944E05682F616080E00E943E
:100FC000650560E787E00E94650581E00E940905EC
:100FD0008091AB02882341F04091B0026BEA72E04D
:100FE0008AE00E941F0512C082E00E944E05E1EADD
:100FF000F4E0E49121E030E001C0220FEA95EAF745
:101000002095622F682382E00E9465058DE10E9491
:101010004E0581FD0C942D060895E0918002F0911B
:1010200081020190F081E02D682F80E892E0199410
:10103000CF93DF938DE00E940D08EC018AE00E94BF
:101040000D088C0F9D1FDF91CF910895CF93DF93F3
:101050000E94DD04EC010E9418088C0F9D1FDF9197
:10106000CF9108950F931F93CF93DF9300E010E08B
:10107000FC016491EC012196662371F0E0918002FD
:10108000F09181020190F081E02D80E892E01995C5
:10109000080F191FCE01ECCFC801DF91CF911F912E
:1010A0000F910895CF93DF930E943208EC010E94C4
:1010B00018088C0F9D1FDF91CF9108958F929F92FA
:1010C000AF92BF92EF92FF920F931F93CF93DF9354
:1010D000CDB7DEB7A1970FB6F894DEBF0FBECDBF78
:1010E000162F042F19A2423008F40AE07E0121E2F3
:1010F000E20EF11C802E912CA12CB12C612FA501A8
:1011000094010E94E411029F1019112481E0E81A51
:10111000F1081A3014F4105D01C0195CF701108356
:10112000122F732FCA01232B242B252B39F7C7012C
:101130000E94DD04A1960FB6F894DEBF0FBECDBFAE
:10114000DF91CF911F910F91FF90EF90BF90AF90E3
:101150009F908F9008951F920F920FB60F921124B7
:101160000BB60F922F933F938F939F93EF93FF9321
:101170002091FA023091FB028091FC029091FD02D5
:101180002817390731F4809131018F7D8093310127
:1011900014C0E091FC02F091FD02E654FD4F208165
:1011A0008091FC029091FD0201968F739927909394
:1011B000FD028093FC0220933601FF91EF919F91F5
:1011C0008F913F912F910F900BBE0F900FBE0F90FC
:1011D0001F9018951F920F920FB60F9211240BB605
:1011E0000F922F933F938F939F93EF93FF932091B1
:1011F000A4033091A5038091A6039091A70328171B
:10120000390731F48091D1008F7D8093D10014C0D3
:10121000E091A603F091A703EC59FC4F2081809147
:10122000A6039091A70301968F7399279093A70324
:101230008093A6032093D600FF91EF919F918F9109
:101240003F912F910F900BBE0F900FBE0F901F90EC
:1012500018951F920F920FB60F9211240BB60F9292
:101260002F933F938F939F93EF93FF9320914E047F
:1012700030914F0480915004909151042817390700
:1012800031F48091C9008F7D8093C90014C0E09132
:101290005004F0915104E25FFB4F20818091500493
:1012A0009091510401968F739927909351048093E4
:1012B00050042093CE00FF91EF919F918F913F9129
:1012C0002F910F900BBE0F900FBE0F901F9018958F
:1012D0001F920F920FB60F9211240BB60F922F93FD
:1012E0003F938F939F93EF93FF932091F804309156
:1012F000F9048091FA049091FB042817390731F41E
:101300008091C1008F7D8093C10014C0E091FA04E8
:10131000F091FB04E854FB4F20818091FA049091F6
:10132000FB0401968F7399279093FB048093FA0432
:101330002093C600FF91EF919F918F913F912F9144
:101340000F900BBE0F900FBE0F901F9018951F921D
:101350000F920FB60F9211240BB60F922F933F935B
:101360004F935F936F937F938F939F93AF93BF93AD
:10137000EF93FF938091300182FD07C08091360189
:101380006EEF72E00E94690302C080913601FF9106
:10139000EF91BF91AF919F918F917F916F915F91ED
:1013A0004F913F912F910F900BBE0F900FBE0F905A
:1013B0001F9018951F920F920FB60F9211240BB623
:1013C0000F922F933F934F935F936F937F938F93DE
:1013D0009F93AF93BF93EF93FF938091D00082FDD3
:1013E00007C08091D60068EA73E00E94690302C0DA
:1013F0008091D600FF91EF91BF91AF919F918F9116
:101400007F916F915F914F913F912F910F900BBE04
:101410000F900FBE0F901F9018951F920F920FB64E
:101420000F9211240BB60F922F933F934F935F931C
:101430006F937F938F939F93AF93BF93EF93FF939C
:101440008091C80082FD07C08091CE0062E574E003
:101450000E94690302C08091CE00FF91EF91BF917D
:10146000AF919F918F917F916F915F914F913F913C
:101470002F910F900BBE0F900FBE0F901F901895DD
:101480001F920F920FB60F9211240BB60F922F934B
:101490003F934F935F936F937F938F939F93AF93FC
:1014A000BF93EF93FF938091C00082FD07C08091AE
:1014B000C6006CEF74E00E94690302C08091C60010
:1014C000FF91EF91BF91AF919F918F917F916F911C
:1014D0005F914F913F912F910F900BBE0F900FBED8
:1014E0000F901F901895789484B5826084BD84B560
:1014F000816084BD85B5826085BD85B5816085BD0F
:1015000080916E00816080936E00109281008091C6
:10151000810082608093810080918100816080934E
:101520008100809180008160809380008091B10073
:1015300084608093B1008091B00081608093B0009E
:1015400080919100826080939100809191008160F0
:1015500080939100809190008160809390008091B1
:10156000A10082608093A1008091A100816080939E
:10157000A1008091A00081608093A0008091210152
:1015800082608093210180912101816080932101FB
:101590008091200181608093200180917A00846095
:1015A00080937A0080917A00826080937A008091A3
:1015B0007A00816080937A0080917A0080688093BD
:1015C0007A001092C10060E085E00E94080361E0AB
:1015D00085E00E94830364E170E080E090E00E9477
:1015E000BD03EDE9F2E08491E7E5F2E0D491E1E1B9
:1015F000F2E0C491CC2389F081110E94B602EC2F55
:10160000F0E0EE0FFF1FEE50FE4FA591B491EC916C
:10161000ED2319F081E090E002C082E090E0909329
:101620005E0280935D02E0919402F091950281E068
:1016300090E09C010090A00202C0220F331F0A9488
:10164000E2F72083E0919002F09191021082E09104
:101650009202F091930220E120831092A102E09186
:101660009602F091970240819C0100909C0202C07A
:10167000220F331F0A94E2F7242B2083E091960275
:10168000F091970240819C0100909D0202C0220FC0
:10169000331F0A94E2F7242B2083E0919602F09105
:1016A000970240819C0100909E0202C0220F331FCE
:1016B0000A94E2F7242B2083E0919602F09197029E
:1016C000208100909F0202C0880F991F0A94E2F7C0
:1016D0008095822380838DEE93E00E94520886EEEF
:1016E00093E00E943208E0915D02F0915E02EE0FFD
:1016F000FF1FED5DFD4F808191810E942608809142
:10170000A2029091A3022091A4023091A502821717
:10171000930719F061E00E9408038091A402909160
:10172000A5022091A2023091A3022817390719F0CF
:1017300061E00E94080361E085E30E94830361E0A9
:1017400085E30E9408038CB580618CBD8CB58064F4
:101750008CBD61E084E30E94080361E083E30E94A2
:10176000080380E00E94090581E00E94EF0465E023
:1017700070E080E090E00E94BD036CE080E00E9499
:1017800065056FE584E00E94650586E00E944E05D0
:10179000877DC82FC0628BE990E0A0E0B0E0809325
:1017A000B2029093B302A093B402B093B5026C2F2F
:1017B00086E00E94650586E00E944E058C1709F4BC
:1017C0002AC286E00E944E0586E00E944E0545E54D
:1017D00050E060E070E04093B2025093B302609337
:1017E000B4027093B502682F677D86E00E9465059C
:1017F00086E00E944E050E94190580E50E942D0496
:1018000083E70E942D040E941C0560E08DE10E9488
:10181000650560E08CE10E9465051092AA0260E710
:1018200087E00E9465056CE485E00E94650582EE14
:101830000E94F9050E942D060E943D0780E00E944B
:101840004E05682F6E7F80E00E9465058DE10E9445
:101850004E05682F64608DE10E9465058CE10E9451
:101860004E05682F6F638CE10E94650581E08093CF
:10187000AA026FE584E00E94650580915D02909167
:101880005E02019761F421EE30EF40EF50EF60EF20
:1018900070E080E090E00E94A10722ED0BC022EDF5
:1018A00030EF40EF50EF60EF70E080E090E00E949A
:1018B000A10721EE30EF40EF50EF60EF70E080E0E5
:1018C00090E00E9483050E94D7078FEF0E94F905E0
:1018D000282F30E0982F91701F929F933595279570
:1018E000277033273F932F9384FB992790F91F92FA
:1018F0009F9385FB992790F91F929F9386FB9927C9
:1019000090F91F929F931F928F938EED92E09F9379
:101910008F930E94150F42E06AE089ED93E00E94E8
:101920006F0644E06CE08CEC93E00E94300641E0EE
:1019300060E183EC93E00E946F0646E061E188EB92
:1019400093E00E94300641E061E081EB93E00E9469
:10195000300641E062E087EA93E00E94300641E011
:1019600065E080EA93E00E94300641E066E087E9A6
:1019700093E00E94300641E060E08FE893E00E942F
:10198000300642E06CE181E893E00E94300686E098
:101990000E944E0588722DB73EB7225F3F4F0FB6AB
:1019A000F8943EBF0FBE2DBF803241F021E090E0A1
:1019B000883009F020E0E22FF92F02C0E2E0F0E0E9
:1019C000EE0FFF1FE558FC4F859194919F938F93E5
:1019D00089E693E09F938F930E94150FE091A802F0
:1019E000F0E0EE0FFF1FEB59FC4F859194919F9310
:1019F0008F9386E593E09F938F930E94150F80E06D
:101A00000E944E05C82F81E00E944E052DB73EB7BB
:101A1000285F3F4F0FB6F8943EBF0FBE2DBFC3FDEA
:101A200002C0882329F0C2FD06C0E1E0F0E005C055
:101A3000E0E0F0E002C0E2E0F0E0EE0FFF1FE05B6C
:101A4000FC4F859194919F938F938DE393E09F93A7
:101A50008F930E94150F86E00E944E058670E82F36
:101A6000F0E0EB5CFC4F859194919F938F9384E21F
:101A700093E09F938F930E94150F8DB79EB70896A2
:101A80000FB6F8949EBF0FBE8DBFC4E0D0E080912A
:101A90005D0290915E02019709F07EC00E940F07DF
:101AA0008AE694E00E943208C0902102D09022027F
:101AB0000D2C000CEE08FF08F7FE0CC08DE20E9412
:101AC0000D0866277727CB016C197D098E099F09C0
:101AD0004AE003C04AE0C701B6010E945E080E94C6
:101AE00018086091210280E092E00E944E070E9457
:101AF000D7078FB7F894C0905902D0905A02E0905F
:101B00005B02F0905C028FBF10E087E10E944E05FF
:101B100080FD85C0112329F08EE494E00E945208D4
:101B200024C00E940C06F82E882309F471C00E947C
:101B3000C50560E787E00E946505EF2DF0E0E15AFA
:101B4000FD4F10828BE394E00E9432086F2D70E00D
:101B500080E090E04AE00E945E0883E394E00E9407
:101B600032088FE592E00E94260880912102909130
:101B700022020196813291052CF4909322028093E7
:101B8000210204C0D0932202C093210264E670E0D7
:101B900080E090E00E94BD0380915D0290915E0222
:101BA0000297B1F587E10E944E0580FD31C00E9489
:101BB0000C06F82E8823B1F30E94C50560E787E084
:101BC0000E946505EF2DF0E0E15AFD4F108280E2A2
:101BD00094E00E9432086F2D70E080E090E04AE0CF
:101BE0000E945E0888E194E00E9432088FE592E04E
:101BF0000E9426080E940F076F2D8FE592E00E9439
:101C00004E0789E094E00E9452080E94D707CACF8D
:101C10000E94CD043CCF81E08093A802D2CD111167
:101C20007BCF2FB7F8948091590290915A02A091DE
:101C30005B02B0915C022FBF8C199D09AE09BF09F0
:101C400011E0853F9140A105B10508F05ECF5CCF62
:101C5000CF92DF92EF92FF92E0E8F2E013821282DD
:101C600088EEC82E83E0D82EE12CF12CC482D582D8
:101C7000E682F7826DE272E0718360838CEF94E01C
:101C80009587848788EB94E09787868785EC90E03A
:101C9000918B808B84EC90E0938B828B80EC90E036
:101CA000958B848B81EC90E0978B868B82EC90E017
:101CB000918F808F86EC90E0938F828F44E0448FE9
:101CC00033E0358F27E0268F85E0878F91E090A362
:101CD000E6E9F4E013821282C482D582E682F782BA
:101CE00071836083A2E5B4E0B587A487AEE0B4E079
:101CF000B787A687ADECB0E0B18BA08BACECB0E0C1
:101D0000B38BA28BA8ECB0E0B58BA48BA9ECB0E0B0
:101D1000B78BA68BAAECB0E0B18FA08FAEECB0E091
:101D2000B38FA28F448F358F268F878F90A3ECEED1
:101D3000F3E013821282C482D582E682F782718335
:101D40006083A8EAB3E0B587A487A4E6B3E0B787C9
:101D5000A687A5EDB0E0B18BA08BA4EDB0E0B38B6E
:101D6000A28BA0EDB0E0B58BA48BA1EDB0E0B78B5A
:101D7000A68BA2EDB0E0B18FA08FA6EDB0E0B38F3F
:101D8000A28F448F358F268F878F90A3E2E4F3E0F4
:101D900013821282C482D582E682F78271836083C5
:101DA0006EEF72E0758764876AEB72E0778766870B
:101DB00065E371E0718B608B64E371E0738B628B20
:101DC00060E371E0758B648B61E371E0778B668B08
:101DD00062E371E0718F608F66E371E0738F628FF1
:101DE000448F358F268F878F90A3E2EAF2E027E0B9
:101DF00030E03183208328E030E033832283168271
:101E000090E297831086868785E090E0A0E0B0E0BE
:101E1000848B958BA68BB78B1186FF90EF90DF900C
:101E2000CF900895F8940C940E120F931F93CF93B4
:101E3000DF93CDB7DEB7AE01485F5F4FDA016D913A
:101E40007D91AD0100E415E0F80182819381DC0110
:101E500013962C911397286013962C930E943D0F94
:101E6000D8011296ED91FC9113972381277F23834C
:101E7000DF91CF911F910F9108952F923F924F9232
:101E80005F926F927F928F929F92AF92BF92CF920A
:101E9000DF92EF92FF920F931F93CF93DF93CDB713
:101EA000DEB72C970FB6F894DEBF0FBECDBF7C0116
:101EB0006B018A01FC0117821682838181FFBDC1FB
:101EC000CE0101964C01F7019381F60193FD8591B6
:101ED00093FF81916F01882309F4ABC1853239F4F6
:101EE00093FD859193FF81916F01853229F4B701AC
:101EF00090E00E944E11E7CF512C312C20E020328F
:101F0000A0F48B3269F030F4803259F0833269F4F6
:101F100020612CC08D3239F0803339F4216026C025
:101F20002260246023C0286021C027FD27C030ED37
:101F3000380F3A3078F426FF06C0FAE05F9E300D85
:101F40001124532E13C08AE0389E300D1124332EF5
:101F500020620CC08E3221F426FD6BC1206406C0C5
:101F60008C3611F4206802C0883641F4F60193FDE6
:101F7000859193FF81916F018111C1CF982F9F7D32
:101F80009554933028F40C5F1F4FFFE3F9830DC085
:101F9000833631F0833771F0833509F05BC022C09E
:101FA000F801808189830E5F1F4F44244394512C94
:101FB000540115C03801F2E06F0E711CF801A080C9
:101FC000B18026FF03C0652D70E002C06FEF7FEF88
:101FD000C5012C870E9443112C0183012C852F778A
:101FE000222E17C03801F2E06F0E711CF801A0809C
:101FF000B18026FF03C0652D70E002C06FEF7FEF58
:10200000C5012C870E9438112C012C852068222EB6
:10201000830123FC1BC0832D90E048165906B0F4C1
:10202000B70180E290E00E944E113A94F4CFF5019E
:1020300027FC859127FE81915F01B70190E00E9406
:102040004E1131103A94F1E04F1A510841145104E5
:1020500071F7E5C0843611F0893639F5F80127FFAC
:1020600007C060817181828193810C5F1F4F08C01E
:1020700060817181072E000C880B990B0E5F1F4F3A
:102080002F76722E97FF09C0909580957095619577
:102090007F4F8F4F9F4F2068722E2AE030E0A401BF
:1020A0000E948611A82EA81844C0853729F42F7ED7
:1020B000B22E2AE030E025C0F22FF97FBF2E8F36F6
:1020C000C1F018F4883579F0B4C0803719F088373A
:1020D00021F0AFC02F2F2061B22EB4FE0DC08B2D8A
:1020E0008460B82E09C024FF0AC09F2F9660B92EC5
:1020F00006C028E030E005C020E130E002C020E169
:1021000032E0F801B7FE07C060817181828193815E
:102110000C5F1F4F06C06081718180E090E00E5F10
:102120001F4FA4010E948611A82EA818FB2DFF772F
:102130007F2E76FE0BC0372D3E7FA51450F474FE23
:102140000AC072FC08C0372D3E7E05C0BA2C372D60
:1021500003C0BA2C01C0B52C34FF0DC0FE01EA0D3E
:10216000F11D8081803311F4397E09C032FF06C031
:10217000B394B39404C0832F867809F0B39433FDED
:1021800013C030FF06C05A2CB31418F4530C5B185C
:10219000B32CB31468F4B70180E290E03C870E944E
:1021A0004E11B3943C85F5CFB31410F43B1801C025
:1021B000312C34FF12C0B70180E390E03C870E94CD
:1021C0004E113C8532FF17C031FD03C088E790E017
:1021D00002C088E590E0B7010CC0832F867859F0E3
:1021E00031FF02C08BE201C080E237FD8DE2B70112
:1021F00090E00E944E11A51438F4B70180E390E0FE
:102200000E944E115A94F7CFAA94F401EA0DF11DE1
:102210008081B70190E00E944E11A110F5CF3320CC
:1022200009F451CEB70180E290E00E944E113A9439
:10223000F6CFF7018681978102C08FEF9FEF2C9632
:102240000FB6F894DEBF0FBECDBFDF91CF911F91C7
:102250000F91FF90EF90DF90CF90BF90AF909F9045
:102260008F907F906F905F904F903F902F90089548
:10227000FC010590615070400110D8F78095909551
:102280008E0F9F1F0895FC01615070400190011056
:10229000D8F7809590958E0F9F1F08950F931F93E9
:1022A000CF93DF93FB01238121FD03C08FEF9FEFCD
:1022B00028C022FF16C046815781248135814217EC
:1022C000530744F4A081B1819D012F5F3F4F3183BB
:1022D00020838C93268137812F5F3F4F378326835E
:1022E00010C0EB01092F182F0084F185E02D1995FE
:1022F000892BE1F68E819F8101969F838E83812FAA
:10230000902FDF91CF911F910F910895FA01AA2785
:10231000283051F1203181F1E8946F936E7F6E5F28
:102320007F4F8F4F9F4FAF4FB1E03ED0B4E03CD0D6
:10233000670F781F891F9A1FA11D680F791F8A1FB9
:10234000911DA11D6A0F711D811D911DA11D20D020
:1023500009F468943F912AE0269F11243019305DDA
:102360003193DEF6CF010895462F4770405D4193CB
:10237000B3E00FD0C9F7F6CF462F4F70405D4A3318
:1023800018F0495D31FD4052419302D0A9F7EACFE0
:10239000B4E0A6959795879577956795BA95C9F70F
:1023A00000976105710508959B01AC010A2E069402
:1023B0005795479537952795BA95C9F7620F731FBB
:1023C000841F951FA01D0895A1E21A2EAA1BBB1BF6
:1023D000FD010DC0AA1FBB1FEE1FFF1FA217B307F1
:1023E000E407F50720F0A21BB30BE40BF50B661F07
:1023F000771F881F991F1A9469F7609570958095CB
:1024000090959B01AC01BD01CF010895EE0FFF1F18
:10241000881F8BBF0790F691E02D1994F894FFCF99
:102420004142434445464748494A4B4C4D4E4F5024
:102430005152535455565758595A3738393031320A
:10244000000400390241024A020000000034048EF8
:1024500002BD048104A1047604696E76616C69642E
:102460000050696E67206F757400506F6E67206250
:0424700061636B0039
:00000001FF
